{
  "_format": "hh-sol-artifact-1",
  "contractName": "TodoContract",
  "sourceName": "contracts/TodoContract.sol",
  "abi": [
    {
      "inputs": [],
      "stateMutability": "payable",
      "type": "constructor"
    },
    {
      "anonymous": false,
      "inputs": [
        {
          "indexed": false,
          "internalType": "uint256",
          "name": "todoID",
          "type": "uint256"
        },
        {
          "indexed": true,
          "internalType": "address",
          "name": "from",
          "type": "address"
        },
        {
          "indexed": false,
          "internalType": "string",
          "name": "message",
          "type": "string"
        },
        {
          "indexed": false,
          "internalType": "uint256",
          "name": "timestamp",
          "type": "uint256"
        }
      ],
      "name": "NewTodo",
      "type": "event"
    },
    {
      "anonymous": false,
      "inputs": [
        {
          "indexed": false,
          "internalType": "uint256",
          "name": "todoID",
          "type": "uint256"
        },
        {
          "indexed": false,
          "internalType": "address",
          "name": "receiver",
          "type": "address"
        },
        {
          "indexed": false,
          "internalType": "string",
          "name": "message",
          "type": "string"
        },
        {
          "indexed": false,
          "internalType": "uint256",
          "name": "timestamp",
          "type": "uint256"
        }
      ],
      "name": "SendMoneyToContract",
      "type": "event"
    },
    {
      "inputs": [],
      "name": "getTodoList",
      "outputs": [
        {
          "components": [
            {
              "internalType": "uint256",
              "name": "id",
              "type": "uint256"
            },
            {
              "internalType": "address",
              "name": "author",
              "type": "address"
            },
            {
              "internalType": "string",
              "name": "message",
              "type": "string"
            },
            {
              "internalType": "uint256",
              "name": "timestamp",
              "type": "uint256"
            }
          ],
          "internalType": "struct TodoContract.Todo[]",
          "name": "",
          "type": "tuple[]"
        }
      ],
      "stateMutability": "view",
      "type": "function"
    },
    {
      "inputs": [],
      "name": "owner",
      "outputs": [
        {
          "internalType": "address payable",
          "name": "",
          "type": "address"
        }
      ],
      "stateMutability": "view",
      "type": "function"
    },
    {
      "inputs": [
        {
          "internalType": "string",
          "name": "_message",
          "type": "string"
        }
      ],
      "name": "published",
      "outputs": [],
      "stateMutability": "payable",
      "type": "function"
    },
    {
      "inputs": [],
      "name": "todoID",
      "outputs": [
        {
          "internalType": "uint256",
          "name": "",
          "type": "uint256"
        }
      ],
      "stateMutability": "view",
      "type": "function"
    },
    {
      "inputs": [
        {
          "internalType": "uint256",
          "name": "",
          "type": "uint256"
        }
      ],
      "name": "todoList",
      "outputs": [
        {
          "internalType": "uint256",
          "name": "id",
          "type": "uint256"
        },
        {
          "internalType": "address",
          "name": "author",
          "type": "address"
        },
        {
          "internalType": "string",
          "name": "message",
          "type": "string"
        },
        {
          "internalType": "uint256",
          "name": "timestamp",
          "type": "uint256"
        }
      ],
      "stateMutability": "view",
      "type": "function"
    },
    {
      "inputs": [],
      "name": "withdraw",
      "outputs": [],
      "stateMutability": "payable",
      "type": "function"
    },
    {
      "stateMutability": "payable",
      "type": "receive"
    }
  ],
  "bytecode": "0x608060405233600260006101000a81548173ffffffffffffffffffffffffffffffffffffffff021916908373ffffffffffffffffffffffffffffffffffffffff16021790555061118a806100546000396000f3fe6080604052600436106100595760003560e01c80630c7a16be146100655780633ccfd60b146100905780634c56216b1461009a57806358c2d469146100c55780638da5cb5b14610105578063a52abdd21461013057610060565b3661006057005b600080fd5b34801561007157600080fd5b5061007a61014c565b6040516100879190610933565b60405180910390f35b6100986102a7565b005b3480156100a657600080fd5b506100af610386565b6040516100bc9190610964565b60405180910390f35b3480156100d157600080fd5b506100ec60048036038101906100e791906109bf565b61038c565b6040516100fc9493929190610a45565b60405180910390f35b34801561011157600080fd5b5061011a610474565b6040516101279190610ab2565b60405180910390f35b61014a60048036038101906101459190610c02565b61049a565b005b60606001805480602002602001604051908101604052809291908181526020016000905b8282101561029e5783829060005260206000209060040201604051806080016040529081600082015481526020016001820160009054906101000a900473ffffffffffffffffffffffffffffffffffffffff1673ffffffffffffffffffffffffffffffffffffffff1673ffffffffffffffffffffffffffffffffffffffff16815260200160028201805461020390610c7a565b80601f016020809104026020016040519081016040528092919081815260200182805461022f90610c7a565b801561027c5780601f106102515761010080835404028352916020019161027c565b820191906000526020600020905b81548152906001019060200180831161025f57829003601f168201915b5050505050815260200160038201548152505081526020019060010190610170565b50505050905090565b600260009054906101000a900473ffffffffffffffffffffffffffffffffffffffff1673ffffffffffffffffffffffffffffffffffffffff163373ffffffffffffffffffffffffffffffffffffffff1614610337576040517f08c379a000000000000000000000000000000000000000000000000000000000815260040161032e90610cf7565b60405180910390fd5b60004790503373ffffffffffffffffffffffffffffffffffffffff166108fc829081150290604051600060405180830381858888f19350505050158015610382573d6000803e3d6000fd5b5050565b60005481565b6001818154811061039c57600080fd5b90600052602060002090600402016000915090508060000154908060010160009054906101000a900473ffffffffffffffffffffffffffffffffffffffff16908060020180546103eb90610c7a565b80601f016020809104026020016040519081016040528092919081815260200182805461041790610c7a565b80156104645780601f1061043957610100808354040283529160200191610464565b820191906000526020600020905b81548152906001019060200180831161044757829003601f168201915b5050505050908060030154905084565b600260009054906101000a900473ffffffffffffffffffffffffffffffffffffffff1681565b60016000808282546104ac9190610d46565b925050819055506000604051806080016040528060005481526020013373ffffffffffffffffffffffffffffffffffffffff16815260200183815260200142815250905060018190806001815401808255809150506001900390600052602060002090600402016000909190919091506000820151816000015560208201518160010160006101000a81548173ffffffffffffffffffffffffffffffffffffffff021916908373ffffffffffffffffffffffffffffffffffffffff16021790555060408201518160020190816105829190610f26565b506060820151816003015550503373ffffffffffffffffffffffffffffffffffffffff167fc6f9fa5ecd463e86c64c047ec01b0a5de331f926aa411aebdeef3510bd1dc35260005484426040516105db93929190610ff8565b60405180910390a2600067016345785d8a0000905080341015610633576040517f08c379a000000000000000000000000000000000000000000000000000000000815260040161062a90611082565b60405180910390fd5b60003073ffffffffffffffffffffffffffffffffffffffff1682604051610659906110d3565b60006040518083038185875af1925050503d8060008114610696576040519150601f19603f3d011682016040523d82523d6000602084013e61069b565b606091505b50509050806106df576040517f08c379a00000000000000000000000000000000000000000000000000000000081526004016106d690611134565b60405180910390fd5b7f7c4dbf8ef712adcfa4aac83be38c202ad5d6f24411000091f35f218a22fcbb016000543386426040516107169493929190610a45565b60405180910390a150505050565b600081519050919050565b600082825260208201905092915050565b6000819050602082019050919050565b6000819050919050565b61076381610750565b82525050565b600073ffffffffffffffffffffffffffffffffffffffff82169050919050565b600061079482610769565b9050919050565b6107a481610789565b82525050565b600081519050919050565b600082825260208201905092915050565b60005b838110156107e45780820151818401526020810190506107c9565b60008484015250505050565b6000601f19601f8301169050919050565b600061080c826107aa565b61081681856107b5565b93506108268185602086016107c6565b61082f816107f0565b840191505092915050565b6000608083016000830151610852600086018261075a565b506020830151610865602086018261079b565b506040830151848203604086015261087d8282610801565b9150506060830151610892606086018261075a565b508091505092915050565b60006108a9838361083a565b905092915050565b6000602082019050919050565b60006108c982610724565b6108d3818561072f565b9350836020820285016108e585610740565b8060005b858110156109215784840389528151610902858261089d565b945061090d836108b1565b925060208a019950506001810190506108e9565b50829750879550505050505092915050565b6000602082019050818103600083015261094d81846108be565b905092915050565b61095e81610750565b82525050565b60006020820190506109796000830184610955565b92915050565b6000604051905090565b600080fd5b600080fd5b61099c81610750565b81146109a757600080fd5b50565b6000813590506109b981610993565b92915050565b6000602082840312156109d5576109d4610989565b5b60006109e3848285016109aa565b91505092915050565b6109f581610789565b82525050565b600082825260208201905092915050565b6000610a17826107aa565b610a2181856109fb565b9350610a318185602086016107c6565b610a3a816107f0565b840191505092915050565b6000608082019050610a5a6000830187610955565b610a6760208301866109ec565b8181036040830152610a798185610a0c565b9050610a886060830184610955565b95945050505050565b6000610a9c82610769565b9050919050565b610aac81610a91565b82525050565b6000602082019050610ac76000830184610aa3565b92915050565b600080fd5b600080fd5b7f4e487b7100000000000000000000000000000000000000000000000000000000600052604160045260246000fd5b610b0f826107f0565b810181811067ffffffffffffffff82111715610b2e57610b2d610ad7565b5b80604052505050565b6000610b4161097f565b9050610b4d8282610b06565b919050565b600067ffffffffffffffff821115610b6d57610b6c610ad7565b5b610b76826107f0565b9050602081019050919050565b82818337600083830152505050565b6000610ba5610ba084610b52565b610b37565b905082815260208101848484011115610bc157610bc0610ad2565b5b610bcc848285610b83565b509392505050565b600082601f830112610be957610be8610acd565b5b8135610bf9848260208601610b92565b91505092915050565b600060208284031215610c1857610c17610989565b5b600082013567ffffffffffffffff811115610c3657610c3561098e565b5b610c4284828501610bd4565b91505092915050565b7f4e487b7100000000000000000000000000000000000000000000000000000000600052602260045260246000fd5b60006002820490506001821680610c9257607f821691505b602082108103610ca557610ca4610c4b565b5b50919050565b7fe5bf85e9a1bbe698afe59088e7baa6e68980e69c89e880850000000000000000600082015250565b6000610ce16018836109fb565b9150610cec82610cab565b602082019050919050565b60006020820190508181036000830152610d1081610cd4565b9050919050565b7f4e487b7100000000000000000000000000000000000000000000000000000000600052601160045260246000fd5b6000610d5182610750565b9150610d5c83610750565b9250828201905080821115610d7457610d73610d17565b5b92915050565b60008190508160005260206000209050919050565b60006020601f8301049050919050565b600082821b905092915050565b600060088302610ddc7fffffffffffffffffffffffffffffffffffffffffffffffffffffffffffffffff82610d9f565b610de68683610d9f565b95508019841693508086168417925050509392505050565b6000819050919050565b6000610e23610e1e610e1984610750565b610dfe565b610750565b9050919050565b6000819050919050565b610e3d83610e08565b610e51610e4982610e2a565b848454610dac565b825550505050565b600090565b610e66610e59565b610e71818484610e34565b505050565b5b81811015610e9557610e8a600082610e5e565b600181019050610e77565b5050565b601f821115610eda57610eab81610d7a565b610eb484610d8f565b81016020851015610ec3578190505b610ed7610ecf85610d8f565b830182610e76565b50505b505050565b600082821c905092915050565b6000610efd60001984600802610edf565b1980831691505092915050565b6000610f168383610eec565b9150826002028217905092915050565b610f2f826107aa565b67ffffffffffffffff811115610f4857610f47610ad7565b5b610f528254610c7a565b610f5d828285610e99565b600060209050601f831160018114610f905760008415610f7e578287015190505b610f888582610f0a565b865550610ff0565b601f198416610f9e86610d7a565b60005b82811015610fc657848901518255600182019150602085019450602081019050610fa1565b86831015610fe35784890151610fdf601f891682610eec565b8355505b6001600288020188555050505b505050505050565b600060608201905061100d6000830186610955565b818103602083015261101f8185610a0c565b905061102e6040830184610955565b949350505050565b7fe4bd99e9a29de4b88de8b6b30000000000000000000000000000000000000000600082015250565b600061106c600c836109fb565b915061107782611036565b602082019050919050565b6000602082019050818103600083015261109b8161105f565b9050919050565b600081905092915050565b50565b60006110bd6000836110a2565b91506110c8826110ad565b600082019050919050565b60006110de826110b0565b9150819050919050565b7fe59091e59088e7baa6e6b187e6acbee5a4b1e8b4a50000000000000000000000600082015250565b600061111e6015836109fb565b9150611129826110e8565b602082019050919050565b6000602082019050818103600083015261114d81611111565b905091905056fea2646970667358221220540603a58c0e37d9fa8ac8d030b869e2415a2afe7b97941a7adf121654cc8c2a64736f6c63430008180033",
  "linkReferences": {},
  "deployedLinkReferences": {}
}